{
  "contractName": "ModeloEmpresa",
  "abi": [
    {
      "anonymous": false,
      "inputs": [
        {
          "indexed": true,
          "internalType": "address",
          "name": "_direccionEmpresa",
          "type": "address"
        },
        {
          "indexed": false,
          "internalType": "string",
          "name": "_nombre",
          "type": "string"
        },
        {
          "indexed": false,
          "internalType": "uint256",
          "name": "_id",
          "type": "uint256"
        }
      ],
      "name": "LOG_NuevaEmpresa",
      "type": "event"
    },
    {
      "constant": true,
      "inputs": [
        {
          "internalType": "address",
          "name": "_direccionEmpresa",
          "type": "address"
        }
      ],
      "name": "existeEmpresa",
      "outputs": [
        {
          "internalType": "bool",
          "name": "_id",
          "type": "bool"
        }
      ],
      "payable": false,
      "stateMutability": "view",
      "type": "function"
    },
    {
      "constant": false,
      "inputs": [
        {
          "internalType": "address",
          "name": "_direccionEmpresa",
          "type": "address"
        },
        {
          "internalType": "string",
          "name": "_nombre",
          "type": "string"
        }
      ],
      "name": "insertaEmpresa",
      "outputs": [
        {
          "internalType": "uint256",
          "name": "_id",
          "type": "uint256"
        }
      ],
      "payable": false,
      "stateMutability": "nonpayable",
      "type": "function"
    },
    {
      "constant": true,
      "inputs": [],
      "name": "getEmpresasCount",
      "outputs": [
        {
          "internalType": "uint256",
          "name": "total",
          "type": "uint256"
        }
      ],
      "payable": false,
      "stateMutability": "view",
      "type": "function"
    },
    {
      "constant": true,
      "inputs": [
        {
          "internalType": "address",
          "name": "_direccionEmpresa",
          "type": "address"
        }
      ],
      "name": "getEmpresa",
      "outputs": [
        {
          "internalType": "string",
          "name": "_nombre",
          "type": "string"
        },
        {
          "internalType": "uint256",
          "name": "_id",
          "type": "uint256"
        }
      ],
      "payable": false,
      "stateMutability": "view",
      "type": "function"
    },
    {
      "constant": true,
      "inputs": [
        {
          "internalType": "uint256",
          "name": "_id",
          "type": "uint256"
        }
      ],
      "name": "getEmpresaAtIndex",
      "outputs": [
        {
          "internalType": "address",
          "name": "_direccionEmpresa",
          "type": "address"
        }
      ],
      "payable": false,
      "stateMutability": "view",
      "type": "function"
    }
  ],
  "bytecode": "0x608060405234801561001057600080fd5b506109fd806100206000396000f3fe608060405234801561001057600080fd5b50600436106100575760003560e01c806357bfcbd51461005c5780636a59d4f6146100b85780636c69e19b146100d657806392b64d8d146101c557806396f7c38614610289575b600080fd5b61009e6004803603602081101561007257600080fd5b81019080803573ffffffffffffffffffffffffffffffffffffffff1690602001909291905050506102f7565b604051808215151515815260200191505060405180910390f35b6100c06103a7565b6040518082815260200191505060405180910390f35b6101af600480360360408110156100ec57600080fd5b81019080803573ffffffffffffffffffffffffffffffffffffffff1690602001909291908035906020019064010000000081111561012957600080fd5b82018360208201111561013b57600080fd5b8035906020019184600183028401116401000000008311171561015d57600080fd5b91908080601f016020809104026020016040519081016040528093929190818152602001838380828437600081840152601f19601f8201169050808301925050505050505091929192905050506103b4565b6040518082815260200191505060405180910390f35b610207600480360360208110156101db57600080fd5b81019080803573ffffffffffffffffffffffffffffffffffffffff1690602001909291905050506106be565b6040518080602001838152602001828103825284818151815260200191508051906020019080838360005b8381101561024d578082015181840152602081019050610232565b50505050905090810190601f16801561027a5780820380516001836020036101000a031916815260200191505b50935050505060405180910390f35b6102b56004803603602081101561029f57600080fd5b8101908080359060200190929190505050610865565b604051808273ffffffffffffffffffffffffffffffffffffffff1673ffffffffffffffffffffffffffffffffffffffff16815260200191505060405180910390f35b600080600180549050141561030f57600090506103a2565b8173ffffffffffffffffffffffffffffffffffffffff166000808473ffffffffffffffffffffffffffffffffffffffff1673ffffffffffffffffffffffffffffffffffffffff16815260200190815260200160002060000160009054906101000a900473ffffffffffffffffffffffffffffffffffffffff1673ffffffffffffffffffffffffffffffffffffffff161490505b919050565b6000600180549050905090565b60006103bf836102f7565b15610432576040517f08c379a00000000000000000000000000000000000000000000000000000000081526004018080602001828103825260148152602001807f4c6120656d7072657361206e6f2065786973746500000000000000000000000081525060200191505060405180910390fd5b826000808573ffffffffffffffffffffffffffffffffffffffff1673ffffffffffffffffffffffffffffffffffffffff16815260200190815260200160002060000160006101000a81548173ffffffffffffffffffffffffffffffffffffffff021916908373ffffffffffffffffffffffffffffffffffffffff160217905550816000808573ffffffffffffffffffffffffffffffffffffffff1673ffffffffffffffffffffffffffffffffffffffff1681526020019081526020016000206001019080519060200190610507929190610923565b5060018390806001815401808255809150509060018203906000526020600020016000909192909190916101000a81548173ffffffffffffffffffffffffffffffffffffffff021916908373ffffffffffffffffffffffffffffffffffffffff1602179055506000808573ffffffffffffffffffffffffffffffffffffffff1673ffffffffffffffffffffffffffffffffffffffff168152602001908152602001600020600201819055508273ffffffffffffffffffffffffffffffffffffffff167f47a043f4f321cec3c9b2927d566addba2e4b619d053010f26c9a51e06add020b836000808773ffffffffffffffffffffffffffffffffffffffff1673ffffffffffffffffffffffffffffffffffffffff168152602001908152602001600020600201546040518080602001838152602001828103825284818151815260200191508051906020019080838360005b83811015610673578082015181840152602081019050610658565b50505050905090810190601f1680156106a05780820380516001836020036101000a031916815260200191505b50935050505060405180910390a26001808054905003905092915050565b606060006106cb836102f7565b61073d576040517f08c379a00000000000000000000000000000000000000000000000000000000081526004018080602001828103825260148152602001807f4c6120656d7072657361206e6f2065786973746500000000000000000000000081525060200191505060405180910390fd5b6000808473ffffffffffffffffffffffffffffffffffffffff1673ffffffffffffffffffffffffffffffffffffffff1681526020019081526020016000206001016000808573ffffffffffffffffffffffffffffffffffffffff1673ffffffffffffffffffffffffffffffffffffffff16815260200190815260200160002060020154818054600181600116156101000203166002900480601f0160208091040260200160405190810160405280929190818152602001828054600181600116156101000203166002900480156108555780601f1061082a57610100808354040283529160200191610855565b820191906000526020600020905b81548152906001019060200180831161083857829003601f168201915b5050505050915091509150915091565b60006001805490508211156108e2576040517f08c379a000000000000000000000000000000000000000000000000000000000815260040180806020018281038252600f8152602001807f456c206964206e6f20657869737465000000000000000000000000000000000081525060200191505060405180910390fd5b6001808303815481106108f157fe5b9060005260206000200160009054906101000a900473ffffffffffffffffffffffffffffffffffffffff169050919050565b828054600181600116156101000203166002900490600052602060002090601f016020900481019282601f1061096457805160ff1916838001178555610992565b82800160010185558215610992579182015b82811115610991578251825591602001919060010190610976565b5b50905061099f91906109a3565b5090565b6109c591905b808211156109c15760008160009055506001016109a9565b5090565b9056fea265627a7a72315820002e633091ece3ddee8e1a10f307cb8c51d118fa3e2a97fcb078381eddf3c8d364736f6c63430005100032",
  "source": "pragma solidity 0.5.16;\n\ncontract ModeloEmpresa {\n\n    struct Empresa {\n        address direccion;\n        string nombre;\n        uint256 id;\n    }\n\n    mapping(address => Empresa) private empresas;\n    address[] private empresasList;\n\n   event LOG_NuevaEmpresa   (address indexed _direccionEmpresa, string _nombre, uint256 _id);\n\n    function existeEmpresa (address _direccionEmpresa) public view returns(bool _id) {\n        if(empresasList.length == 0) {\n            return false;\n        }\n        return (empresas[_direccionEmpresa].direccion == _direccionEmpresa);\n    }\n\n    function insertaEmpresa ( address _direccionEmpresa, string memory _nombre) public returns(uint256 _id) {\n        require (!existeEmpresa(_direccionEmpresa), \"La empresa no existe\");\n        empresas[_direccionEmpresa].direccion = _direccionEmpresa;\n        empresas[_direccionEmpresa].nombre = _nombre;\n        empresas[_direccionEmpresa].id = empresasList.push(_direccionEmpresa);\n        emit LOG_NuevaEmpresa(_direccionEmpresa, _nombre, empresas[_direccionEmpresa].id);\n        return empresasList.length-1;\n    }\n\n    function getEmpresasCount() public view returns (uint256 total) {\n        return empresasList.length;\n    }\n\n    function getEmpresa ( address _direccionEmpresa ) public view returns ( string memory _nombre, uint256 _id) {\n        require (existeEmpresa(_direccionEmpresa), \"La empresa no existe\");\n        return (empresas[_direccionEmpresa].nombre, empresas[_direccionEmpresa].id);\n    }\n\n    function getEmpresaAtIndex ( uint256 _id ) public view returns ( address _direccionEmpresa) {\n        require (_id <= empresasList.length, \"El id no existe\");\n        return (empresasList[_id-1]);//el index de la estructura no es el mismo que el del array (que empieza en 0)\n    }\n\n}\n",
  "sourcePath": "/Users/hugodiazgarcia/Library/Mobile Documents/com~apple~CloudDocs/tfe/weDrone/contracts/ModeloEmpresa.sol",
  "compiler": {
    "name": "solc",
    "version": "0.5.16+commit.9c3226ce.Emscripten.clang"
  },
  "schemaVersion": "3.0.23",
  "updatedAt": "2020-03-12T20:02:55.449Z",
  "devdoc": {
    "methods": {}
  },
  "userdoc": {
    "methods": {}
  }
}