{
  "contractName": "Modelo",
  "abi": [
    {
      "anonymous": false,
      "inputs": [
        {
          "indexed": true,
          "internalType": "address",
          "name": "direccionDron",
          "type": "address"
        },
        {
          "indexed": false,
          "internalType": "uint256",
          "name": "altura_maxima",
          "type": "uint256"
        },
        {
          "indexed": false,
          "internalType": "uint256",
          "name": "altura_minima",
          "type": "uint256"
        },
        {
          "indexed": false,
          "internalType": "uint256",
          "name": "id",
          "type": "uint256"
        }
      ],
      "name": "LOG_DRON_INFO",
      "type": "event"
    },
    {
      "anonymous": false,
      "inputs": [
        {
          "indexed": true,
          "internalType": "address",
          "name": "direccionDron",
          "type": "address"
        },
        {
          "indexed": false,
          "internalType": "uint256",
          "name": "altura_maxima",
          "type": "uint256"
        },
        {
          "indexed": false,
          "internalType": "uint256",
          "name": "altura_minima",
          "type": "uint256"
        },
        {
          "indexed": false,
          "internalType": "uint256",
          "name": "id",
          "type": "uint256"
        },
        {
          "indexed": false,
          "internalType": "uint256",
          "name": "coste",
          "type": "uint256"
        }
      ],
      "name": "LOG_DRON_INFO",
      "type": "event"
    },
    {
      "anonymous": false,
      "inputs": [
        {
          "indexed": true,
          "internalType": "address",
          "name": "_direccionEmpresa",
          "type": "address"
        },
        {
          "indexed": false,
          "internalType": "string",
          "name": "_nombre",
          "type": "string"
        },
        {
          "indexed": false,
          "internalType": "uint256",
          "name": "_id",
          "type": "uint256"
        }
      ],
      "name": "LOG_NuevaEmpresa",
      "type": "event"
    },
    {
      "anonymous": false,
      "inputs": [
        {
          "indexed": true,
          "internalType": "address",
          "name": "_direccionParcela",
          "type": "address"
        }
      ],
      "name": "LOG_PARCELA_FUMIGADA",
      "type": "event"
    },
    {
      "anonymous": false,
      "inputs": [
        {
          "indexed": true,
          "internalType": "address",
          "name": "direccionParcela",
          "type": "address"
        },
        {
          "indexed": true,
          "internalType": "address",
          "name": "empresaPropietaria",
          "type": "address"
        },
        {
          "indexed": false,
          "internalType": "uint256",
          "name": "altura_maxima",
          "type": "uint256"
        },
        {
          "indexed": false,
          "internalType": "uint256",
          "name": "altura_minima",
          "type": "uint256"
        },
        {
          "indexed": false,
          "internalType": "enum Modelo.PESTICIDAS",
          "name": "pesticida",
          "type": "uint8"
        },
        {
          "indexed": false,
          "internalType": "uint256",
          "name": "id",
          "type": "uint256"
        }
      ],
      "name": "LOG_PARCELA_INFO",
      "type": "event"
    },
    {
      "constant": true,
      "inputs": [
        {
          "internalType": "address",
          "name": "_direccionEmpresa",
          "type": "address"
        }
      ],
      "name": "existeEmpresa",
      "outputs": [
        {
          "internalType": "bool",
          "name": "_id",
          "type": "bool"
        }
      ],
      "payable": false,
      "stateMutability": "view",
      "type": "function"
    },
    {
      "constant": true,
      "inputs": [
        {
          "internalType": "address",
          "name": "_direccionEmpresa",
          "type": "address"
        }
      ],
      "name": "getEmpresa",
      "outputs": [
        {
          "internalType": "string",
          "name": "_nombre",
          "type": "string"
        },
        {
          "internalType": "uint256",
          "name": "_id",
          "type": "uint256"
        }
      ],
      "payable": false,
      "stateMutability": "view",
      "type": "function"
    },
    {
      "constant": true,
      "inputs": [
        {
          "internalType": "uint256",
          "name": "_id",
          "type": "uint256"
        }
      ],
      "name": "getEmpresaAtIndex",
      "outputs": [
        {
          "internalType": "address",
          "name": "_direccionEmpresa",
          "type": "address"
        }
      ],
      "payable": false,
      "stateMutability": "view",
      "type": "function"
    },
    {
      "constant": true,
      "inputs": [],
      "name": "getEmpresasCount",
      "outputs": [
        {
          "internalType": "uint256",
          "name": "total",
          "type": "uint256"
        }
      ],
      "payable": false,
      "stateMutability": "view",
      "type": "function"
    },
    {
      "constant": false,
      "inputs": [
        {
          "internalType": "address",
          "name": "_direccionEmpresa",
          "type": "address"
        },
        {
          "internalType": "string",
          "name": "_nombre",
          "type": "string"
        }
      ],
      "name": "insertaEmpresa",
      "outputs": [
        {
          "internalType": "uint256",
          "name": "_id",
          "type": "uint256"
        }
      ],
      "payable": false,
      "stateMutability": "nonpayable",
      "type": "function"
    },
    {
      "constant": true,
      "inputs": [
        {
          "internalType": "address",
          "name": "addr",
          "type": "address"
        }
      ],
      "name": "isOwner",
      "outputs": [
        {
          "internalType": "bool",
          "name": "",
          "type": "bool"
        }
      ],
      "payable": false,
      "stateMutability": "view",
      "type": "function"
    },
    {
      "constant": true,
      "inputs": [],
      "name": "owner",
      "outputs": [
        {
          "internalType": "address",
          "name": "",
          "type": "address"
        }
      ],
      "payable": false,
      "stateMutability": "view",
      "type": "function"
    },
    {
      "constant": false,
      "inputs": [
        {
          "internalType": "address",
          "name": "newOwner",
          "type": "address"
        }
      ],
      "name": "transfer",
      "outputs": [],
      "payable": false,
      "stateMutability": "nonpayable",
      "type": "function"
    },
    {
      "constant": true,
      "inputs": [
        {
          "internalType": "address",
          "name": "_direccionDron",
          "type": "address"
        }
      ],
      "name": "existeDron",
      "outputs": [
        {
          "internalType": "bool",
          "name": "id",
          "type": "bool"
        }
      ],
      "payable": false,
      "stateMutability": "view",
      "type": "function"
    },
    {
      "constant": false,
      "inputs": [
        {
          "internalType": "address",
          "name": "_direccionDron",
          "type": "address"
        },
        {
          "internalType": "uint256",
          "name": "_altura_maxima",
          "type": "uint256"
        },
        {
          "internalType": "uint256",
          "name": "_altura_minima",
          "type": "uint256"
        },
        {
          "internalType": "uint256",
          "name": "_coste",
          "type": "uint256"
        }
      ],
      "name": "insertaDron",
      "outputs": [
        {
          "internalType": "uint256",
          "name": "_id",
          "type": "uint256"
        }
      ],
      "payable": false,
      "stateMutability": "nonpayable",
      "type": "function"
    },
    {
      "constant": true,
      "inputs": [],
      "name": "getDronesCount",
      "outputs": [
        {
          "internalType": "uint256",
          "name": "total",
          "type": "uint256"
        }
      ],
      "payable": false,
      "stateMutability": "view",
      "type": "function"
    },
    {
      "constant": true,
      "inputs": [
        {
          "internalType": "address",
          "name": "_direccionDron",
          "type": "address"
        }
      ],
      "name": "getDron",
      "outputs": [
        {
          "internalType": "enum Modelo.ESTADO",
          "name": "_estado",
          "type": "uint8"
        },
        {
          "internalType": "uint256",
          "name": "_id",
          "type": "uint256"
        }
      ],
      "payable": false,
      "stateMutability": "view",
      "type": "function"
    },
    {
      "constant": false,
      "inputs": [
        {
          "internalType": "address",
          "name": "_direccionDron",
          "type": "address"
        },
        {
          "internalType": "uint256",
          "name": "_altura_maxima",
          "type": "uint256"
        }
      ],
      "name": "setMaxHeight",
      "outputs": [],
      "payable": false,
      "stateMutability": "nonpayable",
      "type": "function"
    },
    {
      "constant": false,
      "inputs": [
        {
          "internalType": "address",
          "name": "_direccionDron",
          "type": "address"
        },
        {
          "internalType": "uint256",
          "name": "_altura_minima",
          "type": "uint256"
        }
      ],
      "name": "setMinHeight",
      "outputs": [],
      "payable": false,
      "stateMutability": "nonpayable",
      "type": "function"
    },
    {
      "constant": false,
      "inputs": [
        {
          "internalType": "address",
          "name": "_direccionDron",
          "type": "address"
        },
        {
          "internalType": "address",
          "name": "_direccionParcela",
          "type": "address"
        },
        {
          "internalType": "enum Modelo.PESTICIDAS",
          "name": "_pesticida",
          "type": "uint8"
        }
      ],
      "name": "buySpray",
      "outputs": [],
      "payable": false,
      "stateMutability": "nonpayable",
      "type": "function"
    },
    {
      "constant": false,
      "inputs": [
        {
          "internalType": "address",
          "name": "_direccionDron",
          "type": "address"
        }
      ],
      "name": "startSpray",
      "outputs": [],
      "payable": false,
      "stateMutability": "nonpayable",
      "type": "function"
    },
    {
      "constant": false,
      "inputs": [
        {
          "internalType": "address",
          "name": "_direccionDron",
          "type": "address"
        }
      ],
      "name": "stopSpray",
      "outputs": [],
      "payable": false,
      "stateMutability": "nonpayable",
      "type": "function"
    },
    {
      "constant": false,
      "inputs": [
        {
          "internalType": "address",
          "name": "_direccionDron",
          "type": "address"
        }
      ],
      "name": "freeSpray",
      "outputs": [],
      "payable": false,
      "stateMutability": "nonpayable",
      "type": "function"
    },
    {
      "constant": true,
      "inputs": [
        {
          "internalType": "address",
          "name": "_direccionParcela",
          "type": "address"
        }
      ],
      "name": "existeParcela",
      "outputs": [
        {
          "internalType": "bool",
          "name": "id",
          "type": "bool"
        }
      ],
      "payable": false,
      "stateMutability": "view",
      "type": "function"
    },
    {
      "constant": false,
      "inputs": [
        {
          "internalType": "address",
          "name": "_direccionParcela",
          "type": "address"
        },
        {
          "internalType": "uint256",
          "name": "_altura_maxima",
          "type": "uint256"
        },
        {
          "internalType": "uint256",
          "name": "_altura_minima",
          "type": "uint256"
        },
        {
          "internalType": "enum Modelo.PESTICIDAS",
          "name": "_pesticida",
          "type": "uint8"
        }
      ],
      "name": "insertaParcela",
      "outputs": [
        {
          "internalType": "uint256",
          "name": "_id",
          "type": "uint256"
        }
      ],
      "payable": false,
      "stateMutability": "nonpayable",
      "type": "function"
    },
    {
      "constant": true,
      "inputs": [],
      "name": "getParcelasCount",
      "outputs": [
        {
          "internalType": "uint256",
          "name": "total",
          "type": "uint256"
        }
      ],
      "payable": false,
      "stateMutability": "view",
      "type": "function"
    },
    {
      "constant": true,
      "inputs": [
        {
          "internalType": "address",
          "name": "_direccionParcela",
          "type": "address"
        }
      ],
      "name": "getParcela",
      "outputs": [
        {
          "internalType": "address",
          "name": "_owner",
          "type": "address"
        },
        {
          "internalType": "uint256",
          "name": "_id",
          "type": "uint256"
        },
        {
          "internalType": "enum Modelo.PESTICIDAS",
          "name": "_pesticidaValido",
          "type": "uint8"
        }
      ],
      "payable": false,
      "stateMutability": "view",
      "type": "function"
    }
  ],
  "bytecode": "0x608060405233600260006101000a81548173ffffffffffffffffffffffffffffffffffffffff021916908373ffffffffffffffffffffffffffffffffffffffff160217905550612cc0806100546000396000f3fe608060405234801561001057600080fd5b50600436106101425760003560e01c80636a59d4f6116100b857806392b64d8d1161007c57806392b64d8d146106e257806396f7c386146107a6578063ad5ea0c214610814578063c9d565bf1461088d578063cd6f20d8146108d1578063d399c90c1461091f57610142565b80636a59d4f6146104f95780636c69e19b146105175780637085fa3414610606578063887666a21461064a5780638da5cb5b1461069857610142565b80633bf99cca1161010a5780633bf99cca146102f45780634371b831146103125780634a7c5e28146103305780634da46b5b146103d057806357bfcbd5146104415780635d2fe34f1461049d57610142565b806304b2f445146101475780630a2a7580146101a35780631a695230146101e75780631bf61ba51461022b5780632f54bf6e14610298575b600080fd5b6101896004803603602081101561015d57600080fd5b81019080803573ffffffffffffffffffffffffffffffffffffffff169060200190929190505050610995565b604051808215151515815260200191505060405180910390f35b6101e5600480360360208110156101b957600080fd5b81019080803573ffffffffffffffffffffffffffffffffffffffff169060200190929190505050610a46565b005b610229600480360360208110156101fd57600080fd5b81019080803573ffffffffffffffffffffffffffffffffffffffff169060200190929190505050610b9e565b005b61026d6004803603602081101561024157600080fd5b81019080803573ffffffffffffffffffffffffffffffffffffffff169060200190929190505050610c28565b6040518083600281111561027d57fe5b60ff1681526020018281526020019250505060405180910390f35b6102da600480360360208110156102ae57600080fd5b81019080803573ffffffffffffffffffffffffffffffffffffffff169060200190929190505050610cc7565b604051808215151515815260200191505060405180910390f35b6102fc610d21565b6040518082815260200191505060405180910390f35b61031a610d2e565b6040518082815260200191505060405180910390f35b6103726004803603602081101561034657600080fd5b81019080803573ffffffffffffffffffffffffffffffffffffffff169060200190929190505050610d3b565b604051808473ffffffffffffffffffffffffffffffffffffffff1673ffffffffffffffffffffffffffffffffffffffff1681526020018381526020018260048111156103ba57fe5b60ff168152602001935050505060405180910390f35b61043f600480360360608110156103e657600080fd5b81019080803573ffffffffffffffffffffffffffffffffffffffff169060200190929190803573ffffffffffffffffffffffffffffffffffffffff169060200190929190803560ff169060200190929190505050610ebe565b005b6104836004803603602081101561045757600080fd5b81019080803573ffffffffffffffffffffffffffffffffffffffff169060200190929190505050611078565b604051808215151515815260200191505060405180910390f35b6104df600480360360208110156104b357600080fd5b81019080803573ffffffffffffffffffffffffffffffffffffffff169060200190929190505050611128565b604051808215151515815260200191505060405180910390f35b6105016111d9565b6040518082815260200191505060405180910390f35b6105f06004803603604081101561052d57600080fd5b81019080803573ffffffffffffffffffffffffffffffffffffffff1690602001909291908035906020019064010000000081111561056a57600080fd5b82018360208201111561057c57600080fd5b8035906020019184600183028401116401000000008311171561059e57600080fd5b91908080601f016020809104026020016040519081016040528093929190818152602001838380828437600081840152601f19601f8201169050808301925050505050505091929192905050506111e6565b6040518082815260200191505060405180910390f35b6106486004803603602081101561061c57600080fd5b81019080803573ffffffffffffffffffffffffffffffffffffffff1690602001909291905050506114f0565b005b6106966004803603604081101561066057600080fd5b81019080803573ffffffffffffffffffffffffffffffffffffffff16906020019092919080359060200190929190505050611649565b005b6106a06118e8565b604051808273ffffffffffffffffffffffffffffffffffffffff1673ffffffffffffffffffffffffffffffffffffffff16815260200191505060405180910390f35b610724600480360360208110156106f857600080fd5b81019080803573ffffffffffffffffffffffffffffffffffffffff16906020019092919050505061190e565b6040518080602001838152602001828103825284818151815260200191508051906020019080838360005b8381101561076a57808201518184015260208101905061074f565b50505050905090810190601f1680156107975780820380516001836020036101000a031916815260200191505b50935050505060405180910390f35b6107d2600480360360208110156107bc57600080fd5b8101908080359060200190929190505050611ab5565b604051808273ffffffffffffffffffffffffffffffffffffffff1673ffffffffffffffffffffffffffffffffffffffff16815260200191505060405180910390f35b6108776004803603608081101561082a57600080fd5b81019080803573ffffffffffffffffffffffffffffffffffffffff1690602001909291908035906020019092919080359060200190929190803560ff169060200190929190505050611b73565b6040518082815260200191505060405180910390f35b6108cf600480360360208110156108a357600080fd5b81019080803573ffffffffffffffffffffffffffffffffffffffff169060200190929190505050612001565b005b61091d600480360360408110156108e757600080fd5b81019080803573ffffffffffffffffffffffffffffffffffffffff1690602001909291908035906020019092919050505061215b565b005b61097f6004803603608081101561093557600080fd5b81019080803573ffffffffffffffffffffffffffffffffffffffff1690602001909291908035906020019092919080359060200190929190803590602001909291905050506123fa565b6040518082815260200191505060405180910390f35b60008060068054905014156109ad5760009050610a41565b8173ffffffffffffffffffffffffffffffffffffffff16600560008473ffffffffffffffffffffffffffffffffffffffff1673ffffffffffffffffffffffffffffffffffffffff16815260200190815260200160002060000160009054906101000a900473ffffffffffffffffffffffffffffffffffffffff1673ffffffffffffffffffffffffffffffffffffffff161490505b919050565b610a4f33610cc7565b610a5857600080fd5b610a6181611128565b610ad3576040517f08c379a00000000000000000000000000000000000000000000000000000000081526004018080602001828103825260108152602001807f4e6f6e6578697374656e742064726f6e0000000000000000000000000000000081525060200191505060405180910390fd5b600280811115610adf57fe5b600360008373ffffffffffffffffffffffffffffffffffffffff1673ffffffffffffffffffffffffffffffffffffffff16815260200190815260200160002060040160009054906101000a900460ff166002811115610b3a57fe5b14610b90576040517f08c379a000000000000000000000000000000000000000000000000000000000815260040180806020018281038252602b815260200180612bd5602b913960400191505060405180910390fd5b610b9b816001612895565b50565b610ba733610cc7565b610bb057600080fd5b3073ffffffffffffffffffffffffffffffffffffffff168173ffffffffffffffffffffffffffffffffffffffff1614610c255780600260006101000a81548173ffffffffffffffffffffffffffffffffffffffff021916908373ffffffffffffffffffffffffffffffffffffffff1602179055505b50565b600080600360008473ffffffffffffffffffffffffffffffffffffffff1673ffffffffffffffffffffffffffffffffffffffff16815260200190815260200160002060040160009054906101000a900460ff16600360008573ffffffffffffffffffffffffffffffffffffffff1673ffffffffffffffffffffffffffffffffffffffff1681526020019081526020016000206001015491509150915091565b6000600260009054906101000a900473ffffffffffffffffffffffffffffffffffffffff1673ffffffffffffffffffffffffffffffffffffffff168273ffffffffffffffffffffffffffffffffffffffff16149050919050565b6000600680549050905090565b6000600480549050905090565b6000806000610d4984610995565b610dbb576040517f08c379a00000000000000000000000000000000000000000000000000000000081526004018080602001828103825260148152602001807f4c612050617263656c61206e6f2065786973746500000000000000000000000081525060200191505060405180910390fd5b600560008573ffffffffffffffffffffffffffffffffffffffff1673ffffffffffffffffffffffffffffffffffffffff16815260200190815260200160002060020160009054906101000a900473ffffffffffffffffffffffffffffffffffffffff16600560008673ffffffffffffffffffffffffffffffffffffffff1673ffffffffffffffffffffffffffffffffffffffff16815260200190815260200160002060010154600560008773ffffffffffffffffffffffffffffffffffffffff1673ffffffffffffffffffffffffffffffffffffffff16815260200190815260200160002060050160009054906101000a900460ff169250925092509193909250565b610ec733610cc7565b610ed057600080fd5b610ed983611128565b610f4b576040517f08c379a00000000000000000000000000000000000000000000000000000000081526004018080602001828103825260108152602001807f4e6f6e6578697374656e742064726f6e0000000000000000000000000000000081525060200191505060405180910390fd5b60006002811115610f5857fe5b600360008573ffffffffffffffffffffffffffffffffffffffff1673ffffffffffffffffffffffffffffffffffffffff16815260200190815260200160002060040160009054906101000a900460ff166002811115610fb357fe5b14611009576040517f08c379a0000000000000000000000000000000000000000000000000000000008152600401808060200182810382526027815260200180612bae6027913960400191505060405180910390fd5b611014836001612895565b61101e8382612989565b611027836114f0565b61103083612001565b8173ffffffffffffffffffffffffffffffffffffffff167fe5d02de15529fa023b7a18935d5151e6f3101613e4a2e8035141bbdb4e028f8d60405160405180910390a2505050565b60008060018054905014156110905760009050611123565b8173ffffffffffffffffffffffffffffffffffffffff166000808473ffffffffffffffffffffffffffffffffffffffff1673ffffffffffffffffffffffffffffffffffffffff16815260200190815260200160002060000160009054906101000a900473ffffffffffffffffffffffffffffffffffffffff1673ffffffffffffffffffffffffffffffffffffffff161490505b919050565b600080600480549050141561114057600090506111d4565b8173ffffffffffffffffffffffffffffffffffffffff16600360008473ffffffffffffffffffffffffffffffffffffffff1673ffffffffffffffffffffffffffffffffffffffff16815260200190815260200160002060000160009054906101000a900473ffffffffffffffffffffffffffffffffffffffff1673ffffffffffffffffffffffffffffffffffffffff161490505b919050565b6000600180549050905090565b60006111f183611078565b15611264576040517f08c379a00000000000000000000000000000000000000000000000000000000081526004018080602001828103825260148152602001807f4c6120656d7072657361206e6f2065786973746500000000000000000000000081525060200191505060405180910390fd5b826000808573ffffffffffffffffffffffffffffffffffffffff1673ffffffffffffffffffffffffffffffffffffffff16815260200190815260200160002060000160006101000a81548173ffffffffffffffffffffffffffffffffffffffff021916908373ffffffffffffffffffffffffffffffffffffffff160217905550816000808573ffffffffffffffffffffffffffffffffffffffff1673ffffffffffffffffffffffffffffffffffffffff1681526020019081526020016000206001019080519060200190611339929190612a7d565b5060018390806001815401808255809150509060018203906000526020600020016000909192909190916101000a81548173ffffffffffffffffffffffffffffffffffffffff021916908373ffffffffffffffffffffffffffffffffffffffff1602179055506000808573ffffffffffffffffffffffffffffffffffffffff1673ffffffffffffffffffffffffffffffffffffffff168152602001908152602001600020600201819055508273ffffffffffffffffffffffffffffffffffffffff167f47a043f4f321cec3c9b2927d566addba2e4b619d053010f26c9a51e06add020b836000808773ffffffffffffffffffffffffffffffffffffffff1673ffffffffffffffffffffffffffffffffffffffff168152602001908152602001600020600201546040518080602001838152602001828103825284818151815260200191508051906020019080838360005b838110156114a557808201518184015260208101905061148a565b50505050905090810190601f1680156114d25780820380516001836020036101000a031916815260200191505b50935050505060405180910390a26001808054905003905092915050565b6114f933610cc7565b61150257600080fd5b61150b81611128565b61157d576040517f08c379a00000000000000000000000000000000000000000000000000000000081526004018080602001828103825260108152602001807f4e6f6e6578697374656e742064726f6e0000000000000000000000000000000081525060200191505060405180910390fd5b6001600281111561158a57fe5b600360008373ffffffffffffffffffffffffffffffffffffffff1673ffffffffffffffffffffffffffffffffffffffff16815260200190815260200160002060040160009054906101000a900460ff1660028111156115e557fe5b1461163b576040517f08c379a000000000000000000000000000000000000000000000000000000000815260040180806020018281038252602a815260200180612c3d602a913960400191505060405180910390fd5b611646816002612895565b50565b61165233610cc7565b61165b57600080fd5b61166482611128565b6116d6576040517f08c379a00000000000000000000000000000000000000000000000000000000081526004018080602001828103825260108152602001807f4e6f6e6578697374656e742064726f6e0000000000000000000000000000000081525060200191505060405180910390fd5b600360008373ffffffffffffffffffffffffffffffffffffffff1673ffffffffffffffffffffffffffffffffffffffff16815260200190815260200160002060020154811115611771576040517f08c379a000000000000000000000000000000000000000000000000000000000815260040180806020018281038252603e815260200180612b4d603e913960400191505060405180910390fd5b80600360008473ffffffffffffffffffffffffffffffffffffffff1673ffffffffffffffffffffffffffffffffffffffff168152602001908152602001600020600301819055508173ffffffffffffffffffffffffffffffffffffffff167fd7b5b51fb13a1d62097cdd02025e49194257b2482355da206ee53c47183356ef600360008573ffffffffffffffffffffffffffffffffffffffff1673ffffffffffffffffffffffffffffffffffffffff1681526020019081526020016000206002015483600360008773ffffffffffffffffffffffffffffffffffffffff1673ffffffffffffffffffffffffffffffffffffffff16815260200190815260200160002060010154600360008873ffffffffffffffffffffffffffffffffffffffff1673ffffffffffffffffffffffffffffffffffffffff168152602001908152602001600020600501546040518085815260200184815260200183815260200182815260200194505050505060405180910390a25050565b600260009054906101000a900473ffffffffffffffffffffffffffffffffffffffff1681565b6060600061191b83611078565b61198d576040517f08c379a00000000000000000000000000000000000000000000000000000000081526004018080602001828103825260148152602001807f4c6120656d7072657361206e6f2065786973746500000000000000000000000081525060200191505060405180910390fd5b6000808473ffffffffffffffffffffffffffffffffffffffff1673ffffffffffffffffffffffffffffffffffffffff1681526020019081526020016000206001016000808573ffffffffffffffffffffffffffffffffffffffff1673ffffffffffffffffffffffffffffffffffffffff16815260200190815260200160002060020154818054600181600116156101000203166002900480601f016020809104026020016040519081016040528092919081815260200182805460018160011615610100020316600290048015611aa55780601f10611a7a57610100808354040283529160200191611aa5565b820191906000526020600020905b815481529060010190602001808311611a8857829003601f168201915b5050505050915091509150915091565b6000600180549050821115611b32576040517f08c379a000000000000000000000000000000000000000000000000000000000815260040180806020018281038252600f8152602001807f456c206964206e6f20657869737465000000000000000000000000000000000081525060200191505060405180910390fd5b600180830381548110611b4157fe5b9060005260206000200160009054906101000a900473ffffffffffffffffffffffffffffffffffffffff169050919050565b6000611b7e33611078565b611bf0576040517f08c379a00000000000000000000000000000000000000000000000000000000081526004018080602001828103825260148152602001807f4c6120656d7072657361206e6f2065786973746500000000000000000000000081525060200191505060405180910390fd5b600084118015611c005750600083115b611c72576040517f08c379a000000000000000000000000000000000000000000000000000000000815260040180806020018281038252601f8152602001807f4e6f2076612076656e6972206e616461206120766f6c6172206f207175653f0081525060200191505060405180910390fd5b82841015611ccb576040517f08c379a0000000000000000000000000000000000000000000000000000000008152600401808060200182810382526025815260200180612c676025913960400191505060405180910390fd5b84600560008773ffffffffffffffffffffffffffffffffffffffff1673ffffffffffffffffffffffffffffffffffffffff16815260200190815260200160002060000160006101000a81548173ffffffffffffffffffffffffffffffffffffffff021916908373ffffffffffffffffffffffffffffffffffffffff16021790555060068590806001815401808255809150509060018203906000526020600020016000909192909190916101000a81548173ffffffffffffffffffffffffffffffffffffffff021916908373ffffffffffffffffffffffffffffffffffffffff160217905550600560008773ffffffffffffffffffffffffffffffffffffffff1673ffffffffffffffffffffffffffffffffffffffff1681526020019081526020016000206001018190555083600560008773ffffffffffffffffffffffffffffffffffffffff1673ffffffffffffffffffffffffffffffffffffffff1681526020019081526020016000206003018190555082600560008773ffffffffffffffffffffffffffffffffffffffff1673ffffffffffffffffffffffffffffffffffffffff16815260200190815260200160002060040181905550600560008673ffffffffffffffffffffffffffffffffffffffff1673ffffffffffffffffffffffffffffffffffffffff16815260200190815260200160002060020160009054906101000a900473ffffffffffffffffffffffffffffffffffffffff1673ffffffffffffffffffffffffffffffffffffffff168573ffffffffffffffffffffffffffffffffffffffff167ffbc94c6e0b69eef7011c58097edebc3fb5acacc2197ac832058e17e3f1a81137868686600560008c73ffffffffffffffffffffffffffffffffffffffff1673ffffffffffffffffffffffffffffffffffffffff1681526020019081526020016000206001015460405180858152602001848152602001836004811115611f9857fe5b60ff16815260200182815260200194505050505060405180910390a3600560008673ffffffffffffffffffffffffffffffffffffffff1673ffffffffffffffffffffffffffffffffffffffff168152602001908152602001600020600101549050949350505050565b61200a33610cc7565b61201357600080fd5b61201c81611128565b61208e576040517f08c379a00000000000000000000000000000000000000000000000000000000081526004018080602001828103825260108152602001807f4e6f6e6578697374656e742064726f6e0000000000000000000000000000000081525060200191505060405180910390fd5b6000600281111561209b57fe5b600360008373ffffffffffffffffffffffffffffffffffffffff1673ffffffffffffffffffffffffffffffffffffffff16815260200190815260200160002060040160009054906101000a900460ff1660028111156120f657fe5b141561214d576040517f08c379a0000000000000000000000000000000000000000000000000000000008152600401808060200182810382526023815260200180612b8b6023913960400191505060405180910390fd5b612158816000612895565b50565b61216433610cc7565b61216d57600080fd5b61217682611128565b6121e8576040517f08c379a00000000000000000000000000000000000000000000000000000000081526004018080602001828103825260108152602001807f4e6f6e6578697374656e742064726f6e0000000000000000000000000000000081525060200191505060405180910390fd5b600360008373ffffffffffffffffffffffffffffffffffffffff1673ffffffffffffffffffffffffffffffffffffffff16815260200190815260200160002060030154811015612283576040517f08c379a000000000000000000000000000000000000000000000000000000000815260040180806020018281038252603d815260200180612c00603d913960400191505060405180910390fd5b80600360008473ffffffffffffffffffffffffffffffffffffffff1673ffffffffffffffffffffffffffffffffffffffff168152602001908152602001600020600201819055508173ffffffffffffffffffffffffffffffffffffffff167fd7b5b51fb13a1d62097cdd02025e49194257b2482355da206ee53c47183356ef82600360008673ffffffffffffffffffffffffffffffffffffffff1673ffffffffffffffffffffffffffffffffffffffff16815260200190815260200160002060030154600360008773ffffffffffffffffffffffffffffffffffffffff1673ffffffffffffffffffffffffffffffffffffffff16815260200190815260200160002060010154600360008873ffffffffffffffffffffffffffffffffffffffff1673ffffffffffffffffffffffffffffffffffffffff168152602001908152602001600020600501546040518085815260200184815260200183815260200182815260200194505050505060405180910390a25050565b600061240533610cc7565b61240e57600080fd5b60008411801561241e5750600083115b612490576040517f08c379a00000000000000000000000000000000000000000000000000000000081526004018080602001828103825260118152602001807f4e6f20766f6c616d6f73206f207175653f00000000000000000000000000000081525060200191505060405180910390fd5b828410156124e9576040517f08c379a0000000000000000000000000000000000000000000000000000000008152600401808060200182810382526025815260200180612c676025913960400191505060405180910390fd5b6000821015612543576040517f08c379a000000000000000000000000000000000000000000000000000000000815260040180806020018281038252602a815260200180612b23602a913960400191505060405180910390fd5b84600360008773ffffffffffffffffffffffffffffffffffffffff1673ffffffffffffffffffffffffffffffffffffffff16815260200190815260200160002060000160006101000a81548173ffffffffffffffffffffffffffffffffffffffff021916908373ffffffffffffffffffffffffffffffffffffffff16021790555060048590806001815401808255809150509060018203906000526020600020016000909192909190916101000a81548173ffffffffffffffffffffffffffffffffffffffff021916908373ffffffffffffffffffffffffffffffffffffffff160217905550600360008773ffffffffffffffffffffffffffffffffffffffff1673ffffffffffffffffffffffffffffffffffffffff1681526020019081526020016000206001018190555083600360008773ffffffffffffffffffffffffffffffffffffffff1673ffffffffffffffffffffffffffffffffffffffff1681526020019081526020016000206002018190555082600360008773ffffffffffffffffffffffffffffffffffffffff1673ffffffffffffffffffffffffffffffffffffffff1681526020019081526020016000206003018190555081600360008773ffffffffffffffffffffffffffffffffffffffff1673ffffffffffffffffffffffffffffffffffffffff168152602001908152602001600020600501819055506000600360008773ffffffffffffffffffffffffffffffffffffffff1673ffffffffffffffffffffffffffffffffffffffff16815260200190815260200160002060040160006101000a81548160ff021916908360028111156127a357fe5b02179055508473ffffffffffffffffffffffffffffffffffffffff167fba741028f9d7b673b8a3ab8200fffa912d185b8946a58823514a1321e47cc7318585600360008a73ffffffffffffffffffffffffffffffffffffffff1673ffffffffffffffffffffffffffffffffffffffff1681526020019081526020016000206001015460405180848152602001838152602001828152602001935050505060405180910390a2600360008673ffffffffffffffffffffffffffffffffffffffff1673ffffffffffffffffffffffffffffffffffffffff168152602001908152602001600020600101549050949350505050565b61289e33610cc7565b6128a757600080fd5b6128b082611128565b612922576040517f08c379a00000000000000000000000000000000000000000000000000000000081526004018080602001828103825260108152602001807f4e6f6e6578697374656e742064726f6e0000000000000000000000000000000081525060200191505060405180910390fd5b80600360008473ffffffffffffffffffffffffffffffffffffffff1673ffffffffffffffffffffffffffffffffffffffff16815260200190815260200160002060040160006101000a81548160ff0219169083600281111561298057fe5b02179055505050565b61299233610cc7565b61299b57600080fd5b6129a482611128565b612a16576040517f08c379a00000000000000000000000000000000000000000000000000000000081526004018080602001828103825260108152602001807f4e6f6e6578697374656e742064726f6e0000000000000000000000000000000081525060200191505060405180910390fd5b80600360008473ffffffffffffffffffffffffffffffffffffffff1673ffffffffffffffffffffffffffffffffffffffff16815260200190815260200160002060040160016101000a81548160ff02191690836004811115612a7457fe5b02179055505050565b828054600181600116156101000203166002900490600052602060002090601f016020900481019282601f10612abe57805160ff1916838001178555612aec565b82800160010185558215612aec579182015b82811115612aeb578251825591602001919060010190612ad0565b5b509050612af99190612afd565b5090565b612b1f91905b80821115612b1b576000816000905550600101612b03565b5090565b9056fe4e6f207365206163657074616e20636f73746573206e6567617469766f732c20416775696c696c6c612144524f4e20504152414d20494e434f5252454354203d3d3e20204d494e2048454947485420495320484947484552205448414e204d41582048454947485444524f4e2053544154555320494e434f5252454354203d3d3e20204953204c4942524544524f4e2053544154555320494e434f5252454354203d3d3e20204953204e4f54204c4942524544524f4e2053544154555320494e434f5252454354203d3d3e20204953204e4f542046554d4947414e444f44524f4e20504152414d20494e434f5252454354203d3d3e20204d415820484549474854204953204c4f574552205448414e204d494e2048454947485444524f4e2053544154555320494e434f5252454354203d3d3e20204953204e4f5420415349474e41444f54616d6f732068616369c3a96e646f6c6f206d616c20636f6e206c617320616c7475726173a265627a7a7231582018bf3b6475a67bc34e399dc6d74d46f011161931a6cdca7784718c8e941e880b64736f6c63430005100032",
  "source": "pragma solidity 0.5.16;\n\nimport \"./ModeloEmpresa.sol\";\nimport \"./Ownable.sol\";\nimport \"./MyToken.sol\";\n\ncontract Modelo is ModeloEmpresa, Owned  {\n\n    enum PESTICIDAS { PESTICIDA_A, PESTICIDA_B, PESTICIDA_C, PESTICIDA_D, PESTICIDA_E }\n    enum ESTADO { LIBRE, ASIGNADO, FUMIGANDO }\n\n    event LOG_DRON_INFO (address indexed direccionDron, uint256 altura_maxima, uint256 altura_minima, uint256 id);\n    event LOG_DRON_INFO (address indexed direccionDron, uint256 altura_maxima, uint256 altura_minima, uint256 id, uint256 coste);\n    event LOG_PARCELA_FUMIGADA (address indexed _direccionParcela );\n    event LOG_PARCELA_INFO(address indexed direccionParcela, address indexed empresaPropietaria,\n                            uint256 altura_maxima, uint256 altura_minima, PESTICIDAS pesticida, uint256 id);\n\n    struct Dron {\n        address direccion;\n        uint256 id;\n        // address empresaPropietaria; //Si me da tiempo hago gestin de propietarios de drones (pero es la misma)\n        uint256 altura_maxima;\n        uint256 altura_minima;\n        ESTADO estado;\n        PESTICIDAS pesticidasHomologados;\n        uint256 coste;\n    }\n\n    mapping(address => Dron) private drones;\n    address[] private dronesList;\n\n    // mapping(address => (address => Parcela)) private parcelasEmpresa;\n\n    function existeDron (address _direccionDron) public view returns(bool id) {\n        if(dronesList.length == 0) {\n            return false;\n        }\n        return (drones[_direccionDron].direccion == _direccionDron);\n    }\n\n    function insertaDron (address _direccionDron, uint256 _altura_maxima,\n                            uint256 _altura_minima, uint256 _coste) public onlyOwner returns(uint256 _id) {\n        require (_altura_maxima > 0 && _altura_minima > 0, \"No volamos o que?\");\n        // require (getDronesCount() >= 0, \"No hay drones\");\n        require (_altura_maxima >= _altura_minima, \"Tamos hacindolo mal con las alturas\");\n        require (_coste >= 0, \"No se aceptan costes negativos, Aguililla!\");\n        drones[_direccionDron].direccion = _direccionDron;\n        drones[_direccionDron].id = dronesList.push(_direccionDron); // getDronesCount()+1;\n        drones[_direccionDron].altura_maxima = _altura_maxima;\n        drones[_direccionDron].altura_minima = _altura_minima;\n        drones[_direccionDron].coste = _coste;\n        drones[_direccionDron].estado = ESTADO.LIBRE;\n        emit LOG_DRON_INFO(_direccionDron, _altura_maxima, _altura_minima, drones[_direccionDron].id);\n        return drones[_direccionDron].id;\n    }\n\n    function getDronesCount() public view returns (uint256 total) {\n        return dronesList.length;\n    }\n\n    function getDron ( address _direccionDron ) public view returns ( ESTADO _estado, uint256 _id) {\n        // require (existeDron(_direccionDron), \"El Dron no existe\");\n        return (drones[_direccionDron].estado, drones[_direccionDron].id);\n    }\n\n    function setMaxHeight(address _direccionDron, uint256 _altura_maxima) public onlyOwner {\n        require(existeDron(_direccionDron), \"Nonexistent dron\");\n        require(_altura_maxima >= drones[_direccionDron].altura_minima, \"DRON PARAM INCORRECT ==>  MAX HEIGHT IS LOWER THAN MIN HEIGHT\");\n        drones[_direccionDron].altura_maxima = _altura_maxima;\n        emit LOG_DRON_INFO(_direccionDron, _altura_maxima, drones[_direccionDron].altura_minima,\n                            drones[_direccionDron].id, drones[_direccionDron].coste);\n    }\n\n    function setMinHeight(address _direccionDron, uint256 _altura_minima) public onlyOwner {\n        require(existeDron(_direccionDron), \"Nonexistent dron\");\n        require(_altura_minima <= drones[_direccionDron].altura_maxima, \"DRON PARAM INCORRECT ==>  MIN HEIGHT IS HIGHER THAN MAX HEIGHT\");\n        drones[_direccionDron].altura_minima = _altura_minima;\n        emit LOG_DRON_INFO( _direccionDron, drones[_direccionDron].altura_maxima, _altura_minima,\n                            drones[_direccionDron].id, drones[_direccionDron].coste);\n    }\n\n    function setTokenState (address _direccionDron, ESTADO _dronState) private onlyOwner {  //internal virtual {\n        require(existeDron(_direccionDron), \"Nonexistent dron\");\n        drones[_direccionDron].estado = _dronState;\n    }\n\n    function setPesticida (address _direccionDron, PESTICIDAS _pesticida) private onlyOwner {  //internal virtual {\n        require(existeDron(_direccionDron), \"Nonexistent dron\");\n        drones[_direccionDron].pesticidasHomologados = _pesticida;\n    }\n\n    function buySpray (address _direccionDron, address _direccionParcela, PESTICIDAS _pesticida ) public onlyOwner {\n        require(existeDron(_direccionDron), \"Nonexistent dron\");\n        require(drones[_direccionDron].estado == ESTADO.LIBRE, \"DRON STATUS INCORRECT ==>  IS NOT LIBRE\");\n        //verificar con requires que cumple con lo necesitado (Alturas y dems)\n\n        setTokenState(_direccionDron, ESTADO.ASIGNADO); // Bloquearlo a modo de semaforo\n        // Gestionar el cobro aqu.\n\n        setPesticida (_direccionDron, _pesticida);\n        startSpray (_direccionDron);\n        freeSpray  (_direccionDron);\n        emit LOG_PARCELA_FUMIGADA (_direccionParcela);\n    }\n\n    function startSpray (address _direccionDron ) public onlyOwner {\n        require(existeDron(_direccionDron), \"Nonexistent dron\");\n        require(drones[_direccionDron].estado == ESTADO.ASIGNADO, \"DRON STATUS INCORRECT ==>  IS NOT ASIGNADO\");\n        setTokenState(_direccionDron, ESTADO.FUMIGANDO);\n    }\n\n    function stopSpray (address _direccionDron) public onlyOwner {\n        require(existeDron(_direccionDron), \"Nonexistent dron\");\n        require(drones[_direccionDron].estado == ESTADO.FUMIGANDO, \"DRON STATUS INCORRECT ==>  IS NOT FUMIGANDO\");\n        setTokenState(_direccionDron, ESTADO.ASIGNADO);\n    }\n\n    function freeSpray (address _direccionDron) public onlyOwner {\n        require(existeDron(_direccionDron), \"Nonexistent dron\");\n        require(drones[_direccionDron].estado != ESTADO.LIBRE, \"DRON STATUS INCORRECT ==>  IS LIBRE\");\n        setTokenState(_direccionDron, ESTADO.LIBRE);\n    }\n\n    /* GESTION DE PARCELAS */\n\n    struct Parcela {\n        address direccion;\n        uint256 id;\n        address empresaPropietaria; //Si me da tiempo hago gestin de propietarios de drones (pero es la misma)\n        uint256 altura_maxima;\n        uint256 altura_minima;\n       //ESTADO estado;\n        PESTICIDAS pesticidaValido;\n        //uint256 coste;\n    }\n\n    mapping(address => Parcela) private parcelas;\n    address[] private parcelasList;\n\n    function existeParcela (address _direccionParcela) public view returns(bool id) {\n        if(parcelasList.length == 0) {\n            return false;\n        }\n        return (parcelas[_direccionParcela].direccion == _direccionParcela);\n    }\n\n    function insertaParcela ( address _direccionParcela, uint256 _altura_maxima, uint256 _altura_minima, PESTICIDAS _pesticida) public\n    returns(uint256 _id)  {\n        // hacer un require de msg.sender = existaComoEmpresa\n        require (existeEmpresa(msg.sender), \"La empresa no existe\");\n        require (_altura_maxima > 0 && _altura_minima > 0, \"No va venir nada a volar o que?\");\n        require (_altura_maxima >= _altura_minima, \"Tamos hacindolo mal con las alturas\");\n        // require ( _pesticida <= PESTICIDAS.PESTICIDA_E, \"No se aceptan pesticidas que no son homologados!\"); No hace falta\n        parcelas[_direccionParcela].direccion = _direccionParcela;\n        parcelas[_direccionParcela].id = parcelasList.push(_direccionParcela); // getDronesCount()+1;\n        parcelas[_direccionParcela].altura_maxima = _altura_maxima;\n        parcelas[_direccionParcela].altura_minima = _altura_minima;\n        emit LOG_PARCELA_INFO( _direccionParcela, parcelas[_direccionParcela].empresaPropietaria,\n                                _altura_maxima, _altura_minima, _pesticida, parcelas[_direccionParcela].id);\n        return parcelas[_direccionParcela].id;\n    }\n\n    function getParcelasCount() public view returns (uint256 total) {\n        return parcelasList.length;\n    }\n\n    function getParcela ( address _direccionParcela ) public view returns ( address _owner, uint256 _id, PESTICIDAS _pesticidaValido ) {\n        require (existeParcela(_direccionParcela), \"La Parcela no existe\");\n        return (parcelas[_direccionParcela].empresaPropietaria, parcelas[_direccionParcela].id, parcelas[_direccionParcela].pesticidaValido);\n    }\n}",
  "sourcePath": "/Users/hugodiazgarcia/Proyectos/truffleERC20/contracts/Modelo.sol",
  "compiler": {
    "name": "solc",
    "version": "0.5.16+commit.9c3226ce.Emscripten.clang"
  },
  "schemaVersion": "3.0.23",
  "updatedAt": "2020-03-14T16:40:21.337Z",
  "networkType": "ethereum",
  "devdoc": {
    "methods": {}
  },
  "userdoc": {
    "methods": {}
  }
}